{
  "_format": "hh-sol-artifact-1",
  "contractName": "DynamicSvgNft",
  "sourceName": "contracts/DynamicSvgNft.sol",
  "abi": [
    {
      "inputs": [
        {
          "internalType": "address",
          "name": "priceFeedAddress",
          "type": "address"
        },
        {
          "internalType": "string",
          "name": "lowSvg",
          "type": "string"
        },
        {
          "internalType": "string",
          "name": "highSvg",
          "type": "string"
        }
      ],
      "stateMutability": "nonpayable",
      "type": "constructor"
    },
    {
      "anonymous": false,
      "inputs": [
        {
          "indexed": true,
          "internalType": "address",
          "name": "owner",
          "type": "address"
        },
        {
          "indexed": true,
          "internalType": "address",
          "name": "approved",
          "type": "address"
        },
        {
          "indexed": true,
          "internalType": "uint256",
          "name": "tokenId",
          "type": "uint256"
        }
      ],
      "name": "Approval",
      "type": "event"
    },
    {
      "anonymous": false,
      "inputs": [
        {
          "indexed": true,
          "internalType": "address",
          "name": "owner",
          "type": "address"
        },
        {
          "indexed": true,
          "internalType": "address",
          "name": "operator",
          "type": "address"
        },
        {
          "indexed": false,
          "internalType": "bool",
          "name": "approved",
          "type": "bool"
        }
      ],
      "name": "ApprovalForAll",
      "type": "event"
    },
    {
      "anonymous": false,
      "inputs": [
        {
          "indexed": true,
          "internalType": "uint256",
          "name": "tokenId",
          "type": "uint256"
        },
        {
          "indexed": false,
          "internalType": "int256",
          "name": "highValue",
          "type": "int256"
        }
      ],
      "name": "CreatedNFT",
      "type": "event"
    },
    {
      "anonymous": false,
      "inputs": [
        {
          "indexed": true,
          "internalType": "address",
          "name": "from",
          "type": "address"
        },
        {
          "indexed": true,
          "internalType": "address",
          "name": "to",
          "type": "address"
        },
        {
          "indexed": true,
          "internalType": "uint256",
          "name": "tokenId",
          "type": "uint256"
        }
      ],
      "name": "Transfer",
      "type": "event"
    },
    {
      "inputs": [
        {
          "internalType": "address",
          "name": "to",
          "type": "address"
        },
        {
          "internalType": "uint256",
          "name": "tokenId",
          "type": "uint256"
        }
      ],
      "name": "approve",
      "outputs": [],
      "stateMutability": "nonpayable",
      "type": "function"
    },
    {
      "inputs": [
        {
          "internalType": "address",
          "name": "owner",
          "type": "address"
        }
      ],
      "name": "balanceOf",
      "outputs": [
        {
          "internalType": "uint256",
          "name": "",
          "type": "uint256"
        }
      ],
      "stateMutability": "view",
      "type": "function"
    },
    {
      "inputs": [
        {
          "internalType": "uint256",
          "name": "tokenId",
          "type": "uint256"
        }
      ],
      "name": "getApproved",
      "outputs": [
        {
          "internalType": "address",
          "name": "",
          "type": "address"
        }
      ],
      "stateMutability": "view",
      "type": "function"
    },
    {
      "inputs": [
        {
          "internalType": "address",
          "name": "owner",
          "type": "address"
        },
        {
          "internalType": "address",
          "name": "operator",
          "type": "address"
        }
      ],
      "name": "isApprovedForAll",
      "outputs": [
        {
          "internalType": "bool",
          "name": "",
          "type": "bool"
        }
      ],
      "stateMutability": "view",
      "type": "function"
    },
    {
      "inputs": [
        {
          "internalType": "int256",
          "name": "highValue",
          "type": "int256"
        }
      ],
      "name": "mintNft",
      "outputs": [],
      "stateMutability": "nonpayable",
      "type": "function"
    },
    {
      "inputs": [],
      "name": "name",
      "outputs": [
        {
          "internalType": "string",
          "name": "",
          "type": "string"
        }
      ],
      "stateMutability": "view",
      "type": "function"
    },
    {
      "inputs": [
        {
          "internalType": "uint256",
          "name": "tokenId",
          "type": "uint256"
        }
      ],
      "name": "ownerOf",
      "outputs": [
        {
          "internalType": "address",
          "name": "",
          "type": "address"
        }
      ],
      "stateMutability": "view",
      "type": "function"
    },
    {
      "inputs": [
        {
          "internalType": "uint256",
          "name": "",
          "type": "uint256"
        }
      ],
      "name": "s_tokenIdToHighValue",
      "outputs": [
        {
          "internalType": "int256",
          "name": "",
          "type": "int256"
        }
      ],
      "stateMutability": "view",
      "type": "function"
    },
    {
      "inputs": [
        {
          "internalType": "address",
          "name": "from",
          "type": "address"
        },
        {
          "internalType": "address",
          "name": "to",
          "type": "address"
        },
        {
          "internalType": "uint256",
          "name": "tokenId",
          "type": "uint256"
        }
      ],
      "name": "safeTransferFrom",
      "outputs": [],
      "stateMutability": "nonpayable",
      "type": "function"
    },
    {
      "inputs": [
        {
          "internalType": "address",
          "name": "from",
          "type": "address"
        },
        {
          "internalType": "address",
          "name": "to",
          "type": "address"
        },
        {
          "internalType": "uint256",
          "name": "tokenId",
          "type": "uint256"
        },
        {
          "internalType": "bytes",
          "name": "data",
          "type": "bytes"
        }
      ],
      "name": "safeTransferFrom",
      "outputs": [],
      "stateMutability": "nonpayable",
      "type": "function"
    },
    {
      "inputs": [
        {
          "internalType": "address",
          "name": "operator",
          "type": "address"
        },
        {
          "internalType": "bool",
          "name": "approved",
          "type": "bool"
        }
      ],
      "name": "setApprovalForAll",
      "outputs": [],
      "stateMutability": "nonpayable",
      "type": "function"
    },
    {
      "inputs": [
        {
          "internalType": "bytes4",
          "name": "interfaceId",
          "type": "bytes4"
        }
      ],
      "name": "supportsInterface",
      "outputs": [
        {
          "internalType": "bool",
          "name": "",
          "type": "bool"
        }
      ],
      "stateMutability": "view",
      "type": "function"
    },
    {
      "inputs": [
        {
          "internalType": "string",
          "name": "svg",
          "type": "string"
        }
      ],
      "name": "svgToImageURI",
      "outputs": [
        {
          "internalType": "string",
          "name": "",
          "type": "string"
        }
      ],
      "stateMutability": "pure",
      "type": "function"
    },
    {
      "inputs": [],
      "name": "symbol",
      "outputs": [
        {
          "internalType": "string",
          "name": "",
          "type": "string"
        }
      ],
      "stateMutability": "view",
      "type": "function"
    },
    {
      "inputs": [
        {
          "internalType": "uint256",
          "name": "tokenId",
          "type": "uint256"
        }
      ],
      "name": "tokenURI",
      "outputs": [
        {
          "internalType": "string",
          "name": "",
          "type": "string"
        }
      ],
      "stateMutability": "view",
      "type": "function"
    },
    {
      "inputs": [
        {
          "internalType": "address",
          "name": "from",
          "type": "address"
        },
        {
          "internalType": "address",
          "name": "to",
          "type": "address"
        },
        {
          "internalType": "uint256",
          "name": "tokenId",
          "type": "uint256"
        }
      ],
      "name": "transferFrom",
      "outputs": [],
      "stateMutability": "nonpayable",
      "type": "function"
    }
  ],
  "bytecode": "0x60a06040523480156200001157600080fd5b5060405162003773380380620037738339818101604052810190620000379190620004e2565b6040518060400160405280600f81526020017f44796e616d696320535647204e465400000000000000000000000000000000008152506040518060400160405280600381526020017f44534e00000000000000000000000000000000000000000000000000000000008152508160009080519060200190620000bb9291906200039d565b508060019080519060200190620000d49291906200039d565b5050506000600681905550620000f0826200017160201b60201c565b60079080519060200190620001079291906200039d565b5062000119816200017160201b60201c565b60089080519060200190620001309291906200039d565b508273ffffffffffffffffffffffffffffffffffffffff1660808173ffffffffffffffffffffffffffffffffffffffff1660601b815250505050506200093a565b60606000620001ac836040516020016200018c9190620005b3565b6040516020818303038152906040526200020f60201b62000d6f1760201c565b90506040518060400160405280601a81526020017f646174613a696d6167652f7376672b786d6c3b6261736536342c00000000000081525081604051602001620001f8929190620005cc565b604051602081830303815290604052915050919050565b6060600082511415620002345760405180602001604052806000815250905062000398565b600060405180606001604052806040815260200162003733604091399050600060036002855162000266919062000669565b620002729190620006c6565b6004620002809190620006fe565b9050600060208262000293919062000669565b67ffffffffffffffff811115620002af57620002ae620008cc565b5b6040519080825280601f01601f191660200182016040528015620002e25781602001600182028036833780820191505090505b509050818152600183018586518101602084015b8183101562000353576003830192508251603f8160121c168501518253600182019150603f81600c1c168501518253600182019150603f8160061c168501518253600182019150603f8116850151825360018201915050620002f6565b60038951066001811462000370576002811462000381576200038c565b613d3d60f01b60028303526200038c565b603d60f81b60018303525b50505050508093505050505b919050565b828054620003ab90620007d3565b90600052602060002090601f016020900481019282620003cf57600085556200041b565b82601f10620003ea57805160ff19168380011785556200041b565b828001600101855582156200041b579182015b828111156200041a578251825591602001919060010190620003fd565b5b5090506200042a91906200042e565b5090565b5b80821115620004495760008160009055506001016200042f565b5090565b6000620004646200045e846200061d565b620005f4565b90508281526020810184848401111562000483576200048262000900565b5b620004908482856200079d565b509392505050565b600081519050620004a98162000920565b92915050565b600082601f830112620004c757620004c6620008fb565b5b8151620004d98482602086016200044d565b91505092915050565b600080600060608486031215620004fe57620004fd6200090a565b5b60006200050e8682870162000498565b935050602084015167ffffffffffffffff81111562000532576200053162000905565b5b6200054086828701620004af565b925050604084015167ffffffffffffffff81111562000564576200056362000905565b5b6200057286828701620004af565b9150509250925092565b6000620005898262000653565b6200059581856200065e565b9350620005a78185602086016200079d565b80840191505092915050565b6000620005c182846200057c565b915081905092915050565b6000620005da82856200057c565b9150620005e882846200057c565b91508190509392505050565b60006200060062000613565b90506200060e828262000809565b919050565b6000604051905090565b600067ffffffffffffffff8211156200063b576200063a620008cc565b5b62000646826200090f565b9050602081019050919050565b600081519050919050565b600081905092915050565b6000620006768262000793565b9150620006838362000793565b9250827fffffffffffffffffffffffffffffffffffffffffffffffffffffffffffffffff03821115620006bb57620006ba6200083f565b5b828201905092915050565b6000620006d38262000793565b9150620006e08362000793565b925082620006f357620006f26200086e565b5b828204905092915050565b60006200070b8262000793565b9150620007188362000793565b9250817fffffffffffffffffffffffffffffffffffffffffffffffffffffffffffffffff04831182151516156200075457620007536200083f565b5b828202905092915050565b60006200076c8262000773565b9050919050565b600073ffffffffffffffffffffffffffffffffffffffff82169050919050565b6000819050919050565b60005b83811015620007bd578082015181840152602081019050620007a0565b83811115620007cd576000848401525b50505050565b60006002820490506001821680620007ec57607f821691505b602082108114156200080357620008026200089d565b5b50919050565b62000814826200090f565b810181811067ffffffffffffffff82111715620008365762000835620008cc565b5b80604052505050565b7f4e487b7100000000000000000000000000000000000000000000000000000000600052601160045260246000fd5b7f4e487b7100000000000000000000000000000000000000000000000000000000600052601260045260246000fd5b7f4e487b7100000000000000000000000000000000000000000000000000000000600052602260045260246000fd5b7f4e487b7100000000000000000000000000000000000000000000000000000000600052604160045260246000fd5b600080fd5b600080fd5b600080fd5b600080fd5b6000601f19601f8301169050919050565b6200092b816200075f565b81146200093757600080fd5b50565b60805160601c612dda620009596000396000610a880152612dda6000f3fe608060405234801561001057600080fd5b50600436106101005760003560e01c80636352211e11610097578063b88d4fde11610066578063b88d4fde146102bd578063c87b56dd146102d9578063e425aded14610309578063e985e9c51461033957610100565b80636352211e1461022357806370a082311461025357806395d89b4114610283578063a22cb465146102a157610100565b80631e930812116100d35780631e9308121461019f57806323b872dd146101bb57806330d871c6146101d757806342842e0e1461020757610100565b806301ffc9a71461010557806306fdde0314610135578063081812fc14610153578063095ea7b314610183575b600080fd5b61011f600480360381019061011a9190611d43565b610369565b60405161012c91906122bc565b60405180910390f35b61013d61044b565b60405161014a91906122f2565b60405180910390f35b61016d60048036038101906101689190611e13565b6104dd565b60405161017a9190612255565b60405180910390f35b61019d60048036038101906101989190611d03565b610523565b005b6101b960048036038101906101b49190611d9d565b61063b565b005b6101d560048036038101906101d09190611bed565b6106b9565b005b6101f160048036038101906101ec9190611dca565b610719565b6040516101fe91906122f2565b60405180910390f35b610221600480360381019061021c9190611bed565b6107a6565b005b61023d60048036038101906102389190611e13565b6107c6565b60405161024a9190612255565b60405180910390f35b61026d60048036038101906102689190611b80565b610878565b60405161027a9190612494565b60405180910390f35b61028b610930565b60405161029891906122f2565b60405180910390f35b6102bb60048036038101906102b69190611cc3565b6109c2565b005b6102d760048036038101906102d29190611c40565b6109d8565b005b6102f360048036038101906102ee9190611e13565b610a3a565b60405161030091906122f2565b60405180910390f35b610323600480360381019061031e9190611e13565b610cc3565b60405161033091906122d7565b60405180910390f35b610353600480360381019061034e9190611bad565b610cdb565b60405161036091906122bc565b60405180910390f35b60007f80ac58cd000000000000000000000000000000000000000000000000000000007bffffffffffffffffffffffffffffffffffffffffffffffffffffffff1916827bffffffffffffffffffffffffffffffffffffffffffffffffffffffff1916148061043457507f5b5e139f000000000000000000000000000000000000000000000000000000007bffffffffffffffffffffffffffffffffffffffffffffffffffffffff1916827bffffffffffffffffffffffffffffffffffffffffffffffffffffffff1916145b80610444575061044382610ee8565b5b9050919050565b60606000805461045a90612764565b80601f016020809104026020016040519081016040528092919081815260200182805461048690612764565b80156104d35780601f106104a8576101008083540402835291602001916104d3565b820191906000526020600020905b8154815290600101906020018083116104b657829003601f168201915b5050505050905090565b60006104e882610f52565b6004600083815260200190815260200160002060009054906101000a900473ffffffffffffffffffffffffffffffffffffffff169050919050565b600061052e826107c6565b90508073ffffffffffffffffffffffffffffffffffffffff168373ffffffffffffffffffffffffffffffffffffffff16141561059f576040517f08c379a000000000000000000000000000000000000000000000000000000000815260040161059690612434565b60405180910390fd5b8073ffffffffffffffffffffffffffffffffffffffff166105be610f9d565b73ffffffffffffffffffffffffffffffffffffffff1614806105ed57506105ec816105e7610f9d565b610cdb565b5b61062c576040517f08c379a0000000000000000000000000000000000000000000000000000000008152600401610623906123d4565b60405180910390fd5b6106368383610fa5565b505050565b8060096000600654815260200190815260200160002081905550600654600660008282546106699190612579565b9250508190555061067c3360065461105e565b6006547f882d3b5a729a8bb95cf6c0083c99b42ecd9637123d4425bd7b768877fd8af8b0826040516106ae91906122d7565b60405180910390a250565b6106ca6106c4610f9d565b8261107c565b610709576040517f08c379a000000000000000000000000000000000000000000000000000000000815260040161070090612474565b60405180910390fd5b610714838383611111565b505050565b606060006107458360405160200161073191906121ca565b604051602081830303815290604052610d6f565b90506040518060400160405280601a81526020017f646174613a696d6167652f7376672b786d6c3b6261736536342c0000000000008152508160405160200161078f9291906121e1565b604051602081830303815290604052915050919050565b6107c1838383604051806020016040528060008152506109d8565b505050565b6000806002600084815260200190815260200160002060009054906101000a900473ffffffffffffffffffffffffffffffffffffffff169050600073ffffffffffffffffffffffffffffffffffffffff168173ffffffffffffffffffffffffffffffffffffffff16141561086f576040517f08c379a000000000000000000000000000000000000000000000000000000000815260040161086690612414565b60405180910390fd5b80915050919050565b60008073ffffffffffffffffffffffffffffffffffffffff168273ffffffffffffffffffffffffffffffffffffffff1614156108e9576040517f08c379a00000000000000000000000000000000000000000000000000000000081526004016108e0906123b4565b60405180910390fd5b600360008373ffffffffffffffffffffffffffffffffffffffff1673ffffffffffffffffffffffffffffffffffffffff168152602001908152602001600020549050919050565b60606001805461093f90612764565b80601f016020809104026020016040519081016040528092919081815260200182805461096b90612764565b80156109b85780601f1061098d576101008083540402835291602001916109b8565b820191906000526020600020905b81548152906001019060200180831161099b57829003601f168201915b5050505050905090565b6109d46109cd610f9d565b8383611378565b5050565b6109e96109e3610f9d565b8361107c565b610a28576040517f08c379a0000000000000000000000000000000000000000000000000000000008152600401610a1f90612474565b60405180910390fd5b610a34848484846114e5565b50505050565b6060610a4582611541565b610a84576040517f08c379a0000000000000000000000000000000000000000000000000000000008152600401610a7b90612454565b60405180910390fd5b60007f000000000000000000000000000000000000000000000000000000000000000073ffffffffffffffffffffffffffffffffffffffff1663feaf968c6040518163ffffffff1660e01b815260040160a06040518083038186803b158015610aec57600080fd5b505afa158015610b00573d6000803e3d6000fd5b505050506040513d601f19601f82011682018060405250810190610b249190611e40565b505050915050600060078054610b3990612764565b80601f0160208091040260200160405190810160405280929190818152602001828054610b6590612764565b8015610bb25780601f10610b8757610100808354040283529160200191610bb2565b820191906000526020600020905b815481529060010190602001808311610b9557829003601f168201915b5050505050905060096000858152602001908152602001600020548212610c615760088054610be090612764565b80601f0160208091040260200160405190810160405280929190818152602001828054610c0c90612764565b8015610c595780601f10610c2e57610100808354040283529160200191610c59565b820191906000526020600020905b815481529060010190602001808311610c3c57829003601f168201915b505050505090505b610c696115ad565b610c9a610c7461044b565b83604051602001610c86929190612205565b604051602081830303815290604052610d6f565b604051602001610cab9291906121e1565b60405160208183030381529060405292505050919050565b60096020528060005260406000206000915090505481565b6000600560008473ffffffffffffffffffffffffffffffffffffffff1673ffffffffffffffffffffffffffffffffffffffff16815260200190815260200160002060008373ffffffffffffffffffffffffffffffffffffffff1673ffffffffffffffffffffffffffffffffffffffff16815260200190815260200160002060009054906101000a900460ff16905092915050565b6060600082511415610d9257604051806020016040528060008152509050610ee3565b6000604051806060016040528060408152602001612d656040913990506000600360028551610dc19190612579565b610dcb91906125cf565b6004610dd79190612600565b90506000602082610de89190612579565b67ffffffffffffffff811115610e0157610e00612854565b5b6040519080825280601f01601f191660200182016040528015610e335781602001600182028036833780820191505090505b509050818152600183018586518101602084015b81831015610ea2576003830192508251603f8160121c168501518253600182019150603f81600c1c168501518253600182019150603f8160061c168501518253600182019150603f8116850151825360018201915050610e47565b600389510660018114610ebc5760028114610ecc57610ed7565b613d3d60f01b6002830352610ed7565b603d60f81b60018303525b50505050508093505050505b919050565b60007f01ffc9a7000000000000000000000000000000000000000000000000000000007bffffffffffffffffffffffffffffffffffffffffffffffffffffffff1916827bffffffffffffffffffffffffffffffffffffffffffffffffffffffff1916149050919050565b610f5b81611541565b610f9a576040517f08c379a0000000000000000000000000000000000000000000000000000000008152600401610f9190612414565b60405180910390fd5b50565b600033905090565b816004600083815260200190815260200160002060006101000a81548173ffffffffffffffffffffffffffffffffffffffff021916908373ffffffffffffffffffffffffffffffffffffffff160217905550808273ffffffffffffffffffffffffffffffffffffffff16611018836107c6565b73ffffffffffffffffffffffffffffffffffffffff167f8c5be1e5ebec7d5bd14f71427d1e84f3dd0314c0f7b2291e5b200ac8c7c3b92560405160405180910390a45050565b6110788282604051806020016040528060008152506115ea565b5050565b600080611088836107c6565b90508073ffffffffffffffffffffffffffffffffffffffff168473ffffffffffffffffffffffffffffffffffffffff1614806110ca57506110c98185610cdb565b5b8061110857508373ffffffffffffffffffffffffffffffffffffffff166110f0846104dd565b73ffffffffffffffffffffffffffffffffffffffff16145b91505092915050565b8273ffffffffffffffffffffffffffffffffffffffff16611131826107c6565b73ffffffffffffffffffffffffffffffffffffffff1614611187576040517f08c379a000000000000000000000000000000000000000000000000000000000815260040161117e90612334565b60405180910390fd5b600073ffffffffffffffffffffffffffffffffffffffff168273ffffffffffffffffffffffffffffffffffffffff1614156111f7576040517f08c379a00000000000000000000000000000000000000000000000000000000081526004016111ee90612374565b60405180910390fd5b611202838383611645565b61120d600082610fa5565b6001600360008573ffffffffffffffffffffffffffffffffffffffff1673ffffffffffffffffffffffffffffffffffffffff168152602001908152602001600020600082825461125d919061265a565b925050819055506001600360008473ffffffffffffffffffffffffffffffffffffffff1673ffffffffffffffffffffffffffffffffffffffff16815260200190815260200160002060008282546112b49190612579565b92505081905550816002600083815260200190815260200160002060006101000a81548173ffffffffffffffffffffffffffffffffffffffff021916908373ffffffffffffffffffffffffffffffffffffffff160217905550808273ffffffffffffffffffffffffffffffffffffffff168473ffffffffffffffffffffffffffffffffffffffff167fddf252ad1be2c89b69c2b068fc378daa952ba7f163c4a11628f55a4df523b3ef60405160405180910390a461137383838361164a565b505050565b8173ffffffffffffffffffffffffffffffffffffffff168373ffffffffffffffffffffffffffffffffffffffff1614156113e7576040517f08c379a00000000000000000000000000000000000000000000000000000000081526004016113de90612394565b60405180910390fd5b80600560008573ffffffffffffffffffffffffffffffffffffffff1673ffffffffffffffffffffffffffffffffffffffff16815260200190815260200160002060008473ffffffffffffffffffffffffffffffffffffffff1673ffffffffffffffffffffffffffffffffffffffff16815260200190815260200160002060006101000a81548160ff0219169083151502179055508173ffffffffffffffffffffffffffffffffffffffff168373ffffffffffffffffffffffffffffffffffffffff167f17307eab39ab6107e8899845ad3d59bd9653f200f220920489ca2b5937696c31836040516114d891906122bc565b60405180910390a3505050565b6114f0848484611111565b6114fc8484848461164f565b61153b576040517f08c379a000000000000000000000000000000000000000000000000000000000815260040161153290612314565b60405180910390fd5b50505050565b60008073ffffffffffffffffffffffffffffffffffffffff166002600084815260200190815260200160002060009054906101000a900473ffffffffffffffffffffffffffffffffffffffff1673ffffffffffffffffffffffffffffffffffffffff1614159050919050565b60606040518060400160405280601d81526020017f646174613a6170706c69636174696f6e2f6a736f6e3b6261736536342c000000815250905090565b6115f483836117e6565b611601600084848461164f565b611640576040517f08c379a000000000000000000000000000000000000000000000000000000000815260040161163790612314565b60405180910390fd5b505050565b505050565b505050565b60006116708473ffffffffffffffffffffffffffffffffffffffff166119c0565b156117d9578373ffffffffffffffffffffffffffffffffffffffff1663150b7a02611699610f9d565b8786866040518563ffffffff1660e01b81526004016116bb9493929190612270565b602060405180830381600087803b1580156116d557600080fd5b505af192505050801561170657506040513d601f19601f820116820180604052508101906117039190611d70565b60015b611789573d8060008114611736576040519150601f19603f3d011682016040523d82523d6000602084013e61173b565b606091505b50600081511415611781576040517f08c379a000000000000000000000000000000000000000000000000000000000815260040161177890612314565b60405180910390fd5b805181602001fd5b63150b7a0260e01b7bffffffffffffffffffffffffffffffffffffffffffffffffffffffff1916817bffffffffffffffffffffffffffffffffffffffffffffffffffffffff1916149150506117de565b600190505b949350505050565b600073ffffffffffffffffffffffffffffffffffffffff168273ffffffffffffffffffffffffffffffffffffffff161415611856576040517f08c379a000000000000000000000000000000000000000000000000000000000815260040161184d906123f4565b60405180910390fd5b61185f81611541565b1561189f576040517f08c379a000000000000000000000000000000000000000000000000000000000815260040161189690612354565b60405180910390fd5b6118ab60008383611645565b6001600360008473ffffffffffffffffffffffffffffffffffffffff1673ffffffffffffffffffffffffffffffffffffffff16815260200190815260200160002060008282546118fb9190612579565b92505081905550816002600083815260200190815260200160002060006101000a81548173ffffffffffffffffffffffffffffffffffffffff021916908373ffffffffffffffffffffffffffffffffffffffff160217905550808273ffffffffffffffffffffffffffffffffffffffff16600073ffffffffffffffffffffffffffffffffffffffff167fddf252ad1be2c89b69c2b068fc378daa952ba7f163c4a11628f55a4df523b3ef60405160405180910390a46119bc6000838361164a565b5050565b6000808273ffffffffffffffffffffffffffffffffffffffff163b119050919050565b60006119f66119f1846124d4565b6124af565b905082815260208101848484011115611a1257611a11612888565b5b611a1d848285612722565b509392505050565b6000611a38611a3384612505565b6124af565b905082815260208101848484011115611a5457611a53612888565b5b611a5f848285612722565b509392505050565b600081359050611a7681612cda565b92915050565b600081359050611a8b81612cf1565b92915050565b600081359050611aa081612d08565b92915050565b600081519050611ab581612d08565b92915050565b600082601f830112611ad057611acf612883565b5b8135611ae08482602086016119e3565b91505092915050565b600081359050611af881612d1f565b92915050565b600081519050611b0d81612d1f565b92915050565b600082601f830112611b2857611b27612883565b5b8135611b38848260208601611a25565b91505092915050565b600081359050611b5081612d36565b92915050565b600081519050611b6581612d36565b92915050565b600081519050611b7a81612d4d565b92915050565b600060208284031215611b9657611b95612892565b5b6000611ba484828501611a67565b91505092915050565b60008060408385031215611bc457611bc3612892565b5b6000611bd285828601611a67565b9250506020611be385828601611a67565b9150509250929050565b600080600060608486031215611c0657611c05612892565b5b6000611c1486828701611a67565b9350506020611c2586828701611a67565b9250506040611c3686828701611b41565b9150509250925092565b60008060008060808587031215611c5a57611c59612892565b5b6000611c6887828801611a67565b9450506020611c7987828801611a67565b9350506040611c8a87828801611b41565b925050606085013567ffffffffffffffff811115611cab57611caa61288d565b5b611cb787828801611abb565b91505092959194509250565b60008060408385031215611cda57611cd9612892565b5b6000611ce885828601611a67565b9250506020611cf985828601611a7c565b9150509250929050565b60008060408385031215611d1a57611d19612892565b5b6000611d2885828601611a67565b9250506020611d3985828601611b41565b9150509250929050565b600060208284031215611d5957611d58612892565b5b6000611d6784828501611a91565b91505092915050565b600060208284031215611d8657611d85612892565b5b6000611d9484828501611aa6565b91505092915050565b600060208284031215611db357611db2612892565b5b6000611dc184828501611ae9565b91505092915050565b600060208284031215611de057611ddf612892565b5b600082013567ffffffffffffffff811115611dfe57611dfd61288d565b5b611e0a84828501611b13565b91505092915050565b600060208284031215611e2957611e28612892565b5b6000611e3784828501611b41565b91505092915050565b600080600080600060a08688031215611e5c57611e5b612892565b5b6000611e6a88828901611b6b565b9550506020611e7b88828901611afe565b9450506040611e8c88828901611b56565b9350506060611e9d88828901611b56565b9250506080611eae88828901611b6b565b9150509295509295909350565b611ec48161268e565b82525050565b611ed3816126a0565b82525050565b6000611ee482612536565b611eee818561254c565b9350611efe818560208601612731565b611f0781612897565b840191505092915050565b611f1b816126d8565b82525050565b6000611f2c82612541565b611f36818561255d565b9350611f46818560208601612731565b611f4f81612897565b840191505092915050565b6000611f6582612541565b611f6f818561256e565b9350611f7f818560208601612731565b80840191505092915050565b6000611f9860098361256e565b9150611fa3826128a8565b600982019050919050565b6000611fbb60328361255d565b9150611fc6826128d1565b604082019050919050565b6000611fde60258361255d565b9150611fe982612920565b604082019050919050565b6000612001601c8361255d565b915061200c8261296f565b602082019050919050565b600061202460248361255d565b915061202f82612998565b604082019050919050565b600061204760198361255d565b9150612052826129e7565b602082019050919050565b600061206a60298361255d565b915061207582612a10565b604082019050919050565b600061208d60028361256e565b915061209882612a5f565b600282019050919050565b60006120b0603e8361255d565b91506120bb82612a88565b604082019050919050565b60006120d360208361255d565b91506120de82612ad7565b602082019050919050565b60006120f660448361256e565b915061210182612b00565b604482019050919050565b600061211960448361256e565b915061212482612b75565b604482019050919050565b600061213c60188361255d565b915061214782612bea565b602082019050919050565b600061215f60218361255d565b915061216a82612c13565b604082019050919050565b6000612182601f8361255d565b915061218d82612c62565b602082019050919050565b60006121a5602e8361255d565b91506121b082612c8b565b604082019050919050565b6121c481612702565b82525050565b60006121d68284611f5a565b915081905092915050565b60006121ed8285611f5a565b91506121f98284611f5a565b91508190509392505050565b600061221082611f8b565b915061221c8285611f5a565b9150612227826120e9565b91506122328261210c565b915061223e8284611f5a565b915061224982612080565b91508190509392505050565b600060208201905061226a6000830184611ebb565b92915050565b60006080820190506122856000830187611ebb565b6122926020830186611ebb565b61229f60408301856121bb565b81810360608301526122b18184611ed9565b905095945050505050565b60006020820190506122d16000830184611eca565b92915050565b60006020820190506122ec6000830184611f12565b92915050565b6000602082019050818103600083015261230c8184611f21565b905092915050565b6000602082019050818103600083015261232d81611fae565b9050919050565b6000602082019050818103600083015261234d81611fd1565b9050919050565b6000602082019050818103600083015261236d81611ff4565b9050919050565b6000602082019050818103600083015261238d81612017565b9050919050565b600060208201905081810360008301526123ad8161203a565b9050919050565b600060208201905081810360008301526123cd8161205d565b9050919050565b600060208201905081810360008301526123ed816120a3565b9050919050565b6000602082019050818103600083015261240d816120c6565b9050919050565b6000602082019050818103600083015261242d8161212f565b9050919050565b6000602082019050818103600083015261244d81612152565b9050919050565b6000602082019050818103600083015261246d81612175565b9050919050565b6000602082019050818103600083015261248d81612198565b9050919050565b60006020820190506124a960008301846121bb565b92915050565b60006124b96124ca565b90506124c58282612796565b919050565b6000604051905090565b600067ffffffffffffffff8211156124ef576124ee612854565b5b6124f882612897565b9050602081019050919050565b600067ffffffffffffffff8211156125205761251f612854565b5b61252982612897565b9050602081019050919050565b600081519050919050565b600081519050919050565b600082825260208201905092915050565b600082825260208201905092915050565b600081905092915050565b600061258482612702565b915061258f83612702565b9250827fffffffffffffffffffffffffffffffffffffffffffffffffffffffffffffffff038211156125c4576125c36127c7565b5b828201905092915050565b60006125da82612702565b91506125e583612702565b9250826125f5576125f46127f6565b5b828204905092915050565b600061260b82612702565b915061261683612702565b9250817fffffffffffffffffffffffffffffffffffffffffffffffffffffffffffffffff048311821515161561264f5761264e6127c7565b5b828202905092915050565b600061266582612702565b915061267083612702565b925082821015612683576126826127c7565b5b828203905092915050565b6000612699826126e2565b9050919050565b60008115159050919050565b60007fffffffff0000000000000000000000000000000000000000000000000000000082169050919050565b6000819050919050565b600073ffffffffffffffffffffffffffffffffffffffff82169050919050565b6000819050919050565b600069ffffffffffffffffffff82169050919050565b82818337600083830152505050565b60005b8381101561274f578082015181840152602081019050612734565b8381111561275e576000848401525b50505050565b6000600282049050600182168061277c57607f821691505b602082108114156127905761278f612825565b5b50919050565b61279f82612897565b810181811067ffffffffffffffff821117156127be576127bd612854565b5b80604052505050565b7f4e487b7100000000000000000000000000000000000000000000000000000000600052601160045260246000fd5b7f4e487b7100000000000000000000000000000000000000000000000000000000600052601260045260246000fd5b7f4e487b7100000000000000000000000000000000000000000000000000000000600052602260045260246000fd5b7f4e487b7100000000000000000000000000000000000000000000000000000000600052604160045260246000fd5b600080fd5b600080fd5b600080fd5b600080fd5b6000601f19601f8301169050919050565b7f7b226e616d65223a220000000000000000000000000000000000000000000000600082015250565b7f4552433732313a207472616e7366657220746f206e6f6e20455243373231526560008201527f63656976657220696d706c656d656e7465720000000000000000000000000000602082015250565b7f4552433732313a207472616e736665722066726f6d20696e636f72726563742060008201527f6f776e6572000000000000000000000000000000000000000000000000000000602082015250565b7f4552433732313a20746f6b656e20616c7265616479206d696e74656400000000600082015250565b7f4552433732313a207472616e7366657220746f20746865207a65726f2061646460008201527f7265737300000000000000000000000000000000000000000000000000000000602082015250565b7f4552433732313a20617070726f766520746f2063616c6c657200000000000000600082015250565b7f4552433732313a2061646472657373207a65726f206973206e6f74206120766160008201527f6c6964206f776e65720000000000000000000000000000000000000000000000602082015250565b7f227d000000000000000000000000000000000000000000000000000000000000600082015250565b7f4552433732313a20617070726f76652063616c6c6572206973206e6f7420746f60008201527f6b656e206f776e6572206e6f7220617070726f76656420666f7220616c6c0000602082015250565b7f4552433732313a206d696e7420746f20746865207a65726f2061646472657373600082015250565b7f222c20226465736372697074696f6e223a22416e204e4654207468617420636860008201527f616e676573206261736564206f6e2074686520436861696e6c696e6b2066656560208201527f64222c2000000000000000000000000000000000000000000000000000000000604082015250565b7f202261747472696275746573223a205b7b2274726169745f74797065223a202260008201527f636f6f6c6e657373222c202276616c7565223a203130307d5d2c2022696d616760208201527f65223a2200000000000000000000000000000000000000000000000000000000604082015250565b7f4552433732313a20696e76616c696420746f6b656e2049440000000000000000600082015250565b7f4552433732313a20617070726f76616c20746f2063757272656e74206f776e6560008201527f7200000000000000000000000000000000000000000000000000000000000000602082015250565b7f55524920517565727920666f72206e6f6e6578697374656e7420746f6b656e00600082015250565b7f4552433732313a2063616c6c6572206973206e6f7420746f6b656e206f776e6560008201527f72206e6f7220617070726f766564000000000000000000000000000000000000602082015250565b612ce38161268e565b8114612cee57600080fd5b50565b612cfa816126a0565b8114612d0557600080fd5b50565b612d11816126ac565b8114612d1c57600080fd5b50565b612d28816126d8565b8114612d3357600080fd5b50565b612d3f81612702565b8114612d4a57600080fd5b50565b612d568161270c565b8114612d6157600080fd5b5056fe4142434445464748494a4b4c4d4e4f505152535455565758595a6162636465666768696a6b6c6d6e6f707172737475767778797a303132333435363738392b2fa26469706673582212208760705b25370b54917d13a2194dd177fab4928dcc48e874a09d90dc6874954564736f6c634300080700334142434445464748494a4b4c4d4e4f505152535455565758595a6162636465666768696a6b6c6d6e6f707172737475767778797a303132333435363738392b2f",
  "linkReferences": {},
  "deployedLinkReferences": {}
}