{
  "_format": "hh-sol-artifact-1",
  "contractName": "RandomIpfsNft",
  "sourceName": "contracts/RandomIpfsNft.sol",
  "abi": [
    {
      "inputs": [
        {
          "internalType": "address",
          "name": "vrfCoordinatorV2",
          "type": "address"
        },
        {
          "internalType": "uint64",
          "name": "subscriptionId",
          "type": "uint64"
        },
        {
          "internalType": "bytes32",
          "name": "gasLane",
          "type": "bytes32"
        },
        {
          "internalType": "uint32",
          "name": "callbackGasLimit",
          "type": "uint32"
        },
        {
          "internalType": "string[3]",
          "name": "dogTokenUris",
          "type": "string[3]"
        },
        {
          "internalType": "uint256",
          "name": "mintFee",
          "type": "uint256"
        }
      ],
      "stateMutability": "nonpayable",
      "type": "constructor"
    },
    {
      "inputs": [
        {
          "internalType": "address",
          "name": "have",
          "type": "address"
        },
        {
          "internalType": "address",
          "name": "want",
          "type": "address"
        }
      ],
      "name": "OnlyCoordinatorCanFulfill",
      "type": "error"
    },
    {
      "inputs": [],
      "name": "RandomIpfsNft__NeedMoreETHSent",
      "type": "error"
    },
    {
      "inputs": [],
      "name": "RandomIpfsNft__RangeOutOfBounds",
      "type": "error"
    },
    {
      "inputs": [],
      "name": "RandomIpfsNft__TransferFailed",
      "type": "error"
    },
    {
      "anonymous": false,
      "inputs": [
        {
          "indexed": true,
          "internalType": "address",
          "name": "owner",
          "type": "address"
        },
        {
          "indexed": true,
          "internalType": "address",
          "name": "approved",
          "type": "address"
        },
        {
          "indexed": true,
          "internalType": "uint256",
          "name": "tokenId",
          "type": "uint256"
        }
      ],
      "name": "Approval",
      "type": "event"
    },
    {
      "anonymous": false,
      "inputs": [
        {
          "indexed": true,
          "internalType": "address",
          "name": "owner",
          "type": "address"
        },
        {
          "indexed": true,
          "internalType": "address",
          "name": "operator",
          "type": "address"
        },
        {
          "indexed": false,
          "internalType": "bool",
          "name": "approved",
          "type": "bool"
        }
      ],
      "name": "ApprovalForAll",
      "type": "event"
    },
    {
      "anonymous": false,
      "inputs": [
        {
          "indexed": false,
          "internalType": "enum RandomIpfsNft.Breed",
          "name": "dogBreed",
          "type": "uint8"
        },
        {
          "indexed": false,
          "internalType": "address",
          "name": "minter",
          "type": "address"
        }
      ],
      "name": "NftMinted",
      "type": "event"
    },
    {
      "anonymous": false,
      "inputs": [
        {
          "indexed": true,
          "internalType": "uint256",
          "name": "requestId",
          "type": "uint256"
        },
        {
          "indexed": false,
          "internalType": "address",
          "name": "requester",
          "type": "address"
        }
      ],
      "name": "NftRequested",
      "type": "event"
    },
    {
      "anonymous": false,
      "inputs": [
        {
          "indexed": true,
          "internalType": "address",
          "name": "previousOwner",
          "type": "address"
        },
        {
          "indexed": true,
          "internalType": "address",
          "name": "newOwner",
          "type": "address"
        }
      ],
      "name": "OwnershipTransferred",
      "type": "event"
    },
    {
      "anonymous": false,
      "inputs": [
        {
          "indexed": true,
          "internalType": "address",
          "name": "from",
          "type": "address"
        },
        {
          "indexed": true,
          "internalType": "address",
          "name": "to",
          "type": "address"
        },
        {
          "indexed": true,
          "internalType": "uint256",
          "name": "tokenId",
          "type": "uint256"
        }
      ],
      "name": "Transfer",
      "type": "event"
    },
    {
      "inputs": [
        {
          "internalType": "address",
          "name": "to",
          "type": "address"
        },
        {
          "internalType": "uint256",
          "name": "tokenId",
          "type": "uint256"
        }
      ],
      "name": "approve",
      "outputs": [],
      "stateMutability": "nonpayable",
      "type": "function"
    },
    {
      "inputs": [
        {
          "internalType": "address",
          "name": "owner",
          "type": "address"
        }
      ],
      "name": "balanceOf",
      "outputs": [
        {
          "internalType": "uint256",
          "name": "",
          "type": "uint256"
        }
      ],
      "stateMutability": "view",
      "type": "function"
    },
    {
      "inputs": [
        {
          "internalType": "uint256",
          "name": "tokenId",
          "type": "uint256"
        }
      ],
      "name": "getApproved",
      "outputs": [
        {
          "internalType": "address",
          "name": "",
          "type": "address"
        }
      ],
      "stateMutability": "view",
      "type": "function"
    },
    {
      "inputs": [
        {
          "internalType": "uint256",
          "name": "moddedRng",
          "type": "uint256"
        }
      ],
      "name": "getBreedFromModdedRng",
      "outputs": [
        {
          "internalType": "enum RandomIpfsNft.Breed",
          "name": "",
          "type": "uint8"
        }
      ],
      "stateMutability": "pure",
      "type": "function"
    },
    {
      "inputs": [],
      "name": "getChanceArray",
      "outputs": [
        {
          "internalType": "uint256[3]",
          "name": "",
          "type": "uint256[3]"
        }
      ],
      "stateMutability": "pure",
      "type": "function"
    },
    {
      "inputs": [
        {
          "internalType": "uint256",
          "name": "index",
          "type": "uint256"
        }
      ],
      "name": "getDogTokenUris",
      "outputs": [
        {
          "internalType": "string",
          "name": "",
          "type": "string"
        }
      ],
      "stateMutability": "view",
      "type": "function"
    },
    {
      "inputs": [],
      "name": "getMintFee",
      "outputs": [
        {
          "internalType": "uint256",
          "name": "",
          "type": "uint256"
        }
      ],
      "stateMutability": "view",
      "type": "function"
    },
    {
      "inputs": [],
      "name": "getTokenCounter",
      "outputs": [
        {
          "internalType": "uint256",
          "name": "",
          "type": "uint256"
        }
      ],
      "stateMutability": "view",
      "type": "function"
    },
    {
      "inputs": [
        {
          "internalType": "address",
          "name": "owner",
          "type": "address"
        },
        {
          "internalType": "address",
          "name": "operator",
          "type": "address"
        }
      ],
      "name": "isApprovedForAll",
      "outputs": [
        {
          "internalType": "bool",
          "name": "",
          "type": "bool"
        }
      ],
      "stateMutability": "view",
      "type": "function"
    },
    {
      "inputs": [],
      "name": "name",
      "outputs": [
        {
          "internalType": "string",
          "name": "",
          "type": "string"
        }
      ],
      "stateMutability": "view",
      "type": "function"
    },
    {
      "inputs": [],
      "name": "owner",
      "outputs": [
        {
          "internalType": "address",
          "name": "",
          "type": "address"
        }
      ],
      "stateMutability": "view",
      "type": "function"
    },
    {
      "inputs": [
        {
          "internalType": "uint256",
          "name": "tokenId",
          "type": "uint256"
        }
      ],
      "name": "ownerOf",
      "outputs": [
        {
          "internalType": "address",
          "name": "",
          "type": "address"
        }
      ],
      "stateMutability": "view",
      "type": "function"
    },
    {
      "inputs": [
        {
          "internalType": "uint256",
          "name": "requestId",
          "type": "uint256"
        },
        {
          "internalType": "uint256[]",
          "name": "randomWords",
          "type": "uint256[]"
        }
      ],
      "name": "rawFulfillRandomWords",
      "outputs": [],
      "stateMutability": "nonpayable",
      "type": "function"
    },
    {
      "inputs": [],
      "name": "renounceOwnership",
      "outputs": [],
      "stateMutability": "nonpayable",
      "type": "function"
    },
    {
      "inputs": [],
      "name": "requestNft",
      "outputs": [
        {
          "internalType": "uint256",
          "name": "requestId",
          "type": "uint256"
        }
      ],
      "stateMutability": "payable",
      "type": "function"
    },
    {
      "inputs": [
        {
          "internalType": "uint256",
          "name": "",
          "type": "uint256"
        }
      ],
      "name": "s_requestIdToSender",
      "outputs": [
        {
          "internalType": "address",
          "name": "",
          "type": "address"
        }
      ],
      "stateMutability": "view",
      "type": "function"
    },
    {
      "inputs": [],
      "name": "s_tokenCounter",
      "outputs": [
        {
          "internalType": "uint256",
          "name": "",
          "type": "uint256"
        }
      ],
      "stateMutability": "view",
      "type": "function"
    },
    {
      "inputs": [
        {
          "internalType": "address",
          "name": "from",
          "type": "address"
        },
        {
          "internalType": "address",
          "name": "to",
          "type": "address"
        },
        {
          "internalType": "uint256",
          "name": "tokenId",
          "type": "uint256"
        }
      ],
      "name": "safeTransferFrom",
      "outputs": [],
      "stateMutability": "nonpayable",
      "type": "function"
    },
    {
      "inputs": [
        {
          "internalType": "address",
          "name": "from",
          "type": "address"
        },
        {
          "internalType": "address",
          "name": "to",
          "type": "address"
        },
        {
          "internalType": "uint256",
          "name": "tokenId",
          "type": "uint256"
        },
        {
          "internalType": "bytes",
          "name": "data",
          "type": "bytes"
        }
      ],
      "name": "safeTransferFrom",
      "outputs": [],
      "stateMutability": "nonpayable",
      "type": "function"
    },
    {
      "inputs": [
        {
          "internalType": "address",
          "name": "operator",
          "type": "address"
        },
        {
          "internalType": "bool",
          "name": "approved",
          "type": "bool"
        }
      ],
      "name": "setApprovalForAll",
      "outputs": [],
      "stateMutability": "nonpayable",
      "type": "function"
    },
    {
      "inputs": [
        {
          "internalType": "bytes4",
          "name": "interfaceId",
          "type": "bytes4"
        }
      ],
      "name": "supportsInterface",
      "outputs": [
        {
          "internalType": "bool",
          "name": "",
          "type": "bool"
        }
      ],
      "stateMutability": "view",
      "type": "function"
    },
    {
      "inputs": [],
      "name": "symbol",
      "outputs": [
        {
          "internalType": "string",
          "name": "",
          "type": "string"
        }
      ],
      "stateMutability": "view",
      "type": "function"
    },
    {
      "inputs": [
        {
          "internalType": "uint256",
          "name": "tokenId",
          "type": "uint256"
        }
      ],
      "name": "tokenURI",
      "outputs": [
        {
          "internalType": "string",
          "name": "",
          "type": "string"
        }
      ],
      "stateMutability": "view",
      "type": "function"
    },
    {
      "inputs": [
        {
          "internalType": "address",
          "name": "from",
          "type": "address"
        },
        {
          "internalType": "address",
          "name": "to",
          "type": "address"
        },
        {
          "internalType": "uint256",
          "name": "tokenId",
          "type": "uint256"
        }
      ],
      "name": "transferFrom",
      "outputs": [],
      "stateMutability": "nonpayable",
      "type": "function"
    },
    {
      "inputs": [
        {
          "internalType": "address",
          "name": "newOwner",
          "type": "address"
        }
      ],
      "name": "transferOwnership",
      "outputs": [],
      "stateMutability": "nonpayable",
      "type": "function"
    },
    {
      "inputs": [],
      "name": "withdraw",
      "outputs": [],
      "stateMutability": "nonpayable",
      "type": "function"
    }
  ],
  "bytecode": "0x6101206040523480156200001257600080fd5b50604051620042da380380620042da8339818101604052810190620000389190620005d5565b6040518060400160405280600f81526020017f52616e646f6d2049504653204e465400000000000000000000000000000000008152506040518060400160405280600381526020017f52494e0000000000000000000000000000000000000000000000000000000000815250878073ffffffffffffffffffffffffffffffffffffffff1660808173ffffffffffffffffffffffffffffffffffffffff1660601b81525050508160009080519060200190620000f59291906200029c565b5080600190805190602001906200010e9291906200029c565b5050506200013162000125620001ce60201b60201c565b620001d660201b60201c565b8573ffffffffffffffffffffffffffffffffffffffff1660a08173ffffffffffffffffffffffffffffffffffffffff1660601b815250508467ffffffffffffffff1660c08167ffffffffffffffff1660c01b815250508360e081815250508263ffffffff166101008163ffffffff1660e01b8152505081600a906003620001ba9291906200032d565b5080600b8190555050505050505062000930565b600033905090565b6000600760009054906101000a900473ffffffffffffffffffffffffffffffffffffffff16905081600760006101000a81548173ffffffffffffffffffffffffffffffffffffffff021916908373ffffffffffffffffffffffffffffffffffffffff1602179055508173ffffffffffffffffffffffffffffffffffffffff168173ffffffffffffffffffffffffffffffffffffffff167f8be0079c531659141344cd1fd0a4f28419497f9722a3daafe3b4186f6b6457e060405160405180910390a35050565b828054620002aa90620007ba565b90600052602060002090601f016020900481019282620002ce57600085556200031a565b82601f10620002e957805160ff19168380011785556200031a565b828001600101855582156200031a579182015b8281111562000319578251825591602001919060010190620002fc565b5b50905062000329919062000394565b5090565b82805482825590600052602060002090810192821562000381579160200282015b82811115620003805782518290805190602001906200036f9291906200029c565b50916020019190600101906200034e565b5b509050620003909190620003b3565b5090565b5b80821115620003af57600081600090555060010162000395565b5090565b5b80821115620003d75760008181620003cd9190620003db565b50600101620003b4565b5090565b508054620003e990620007ba565b6000825580601f10620003fd57506200041e565b601f0160209004906000526020600020908101906200041d919062000394565b5b50565b6000620004386200043284620006b9565b62000690565b9050808285602086028201111562000455576200045462000889565b5b60005b85811015620004aa57815167ffffffffffffffff8111156200047f576200047e62000884565b5b8086016200048e89826200055d565b8552602085019450602084019350505060018101905062000458565b5050509392505050565b6000620004cb620004c584620006e2565b62000690565b905082815260208101848484011115620004ea57620004e96200088e565b5b620004f784828562000784565b509392505050565b6000815190506200051081620008ae565b92915050565b600082601f8301126200052e576200052d62000884565b5b60036200053d84828562000421565b91505092915050565b6000815190506200055781620008c8565b92915050565b600082601f83011262000575576200057462000884565b5b815162000587848260208601620004b4565b91505092915050565b600081519050620005a181620008e2565b92915050565b600081519050620005b881620008fc565b92915050565b600081519050620005cf8162000916565b92915050565b60008060008060008060c08789031215620005f557620005f462000898565b5b60006200060589828a01620004ff565b96505060206200061889828a01620005be565b95505060406200062b89828a0162000546565b94505060606200063e89828a01620005a7565b935050608087015167ffffffffffffffff81111562000662576200066162000893565b5b6200067089828a0162000516565b92505060a06200068389828a0162000590565b9150509295509295509295565b60006200069c620006af565b9050620006aa8282620007f0565b919050565b6000604051905090565b600067ffffffffffffffff821115620006d757620006d662000855565b5b602082029050919050565b600067ffffffffffffffff8211156200070057620006ff62000855565b5b6200070b826200089d565b9050602081019050919050565b6000620007258262000736565b9050919050565b6000819050919050565b600073ffffffffffffffffffffffffffffffffffffffff82169050919050565b6000819050919050565b600063ffffffff82169050919050565b600067ffffffffffffffff82169050919050565b60005b83811015620007a457808201518184015260208101905062000787565b83811115620007b4576000848401525b50505050565b60006002820490506001821680620007d357607f821691505b60208210811415620007ea57620007e962000826565b5b50919050565b620007fb826200089d565b810181811067ffffffffffffffff821117156200081d576200081c62000855565b5b80604052505050565b7f4e487b7100000000000000000000000000000000000000000000000000000000600052602260045260246000fd5b7f4e487b7100000000000000000000000000000000000000000000000000000000600052604160045260246000fd5b600080fd5b600080fd5b600080fd5b600080fd5b600080fd5b6000601f19601f8301169050919050565b620008b98162000718565b8114620008c557600080fd5b50565b620008d3816200072c565b8114620008df57600080fd5b50565b620008ed8162000756565b8114620008f957600080fd5b50565b620009078162000760565b81146200091357600080fd5b50565b620009218162000770565b81146200092d57600080fd5b50565b60805160601c60a05160601c60c05160c01c60e0516101005160e01c61395262000988600039600061102301526000610fdf0152600061100001526000610fa301526000818161091d015261097101526139526000f3fe6080604052600436106101815760003560e01c806370a08231116100d1578063a36f573b1161008a578063b88d4fde11610064578063b88d4fde14610577578063c87b56dd146105a0578063e985e9c5146105dd578063f2fde38b1461061a57610181565b8063a36f573b146104df578063a51cccf31461051c578063aa1524911461055957610181565b806370a08231146103e1578063715018a61461041e5780637a5caab3146104355780638da5cb5b1461046057806395d89b411461048b578063a22cb465146104b657610181565b806323b872dd1161013e57806342842e0e1161011857806342842e0e146103255780635dacf5f41461034e5780636352211e146103795780636e02007d146103b657610181565b806323b872dd146102a85780633af25975146102d15780633ccfd60b1461030e57610181565b806301ffc9a71461018657806306fdde03146101c3578063081812fc146101ee578063095ea7b31461022b5780630b21a83b146102545780631fe543e31461027f575b600080fd5b34801561019257600080fd5b506101ad60048036038101906101a891906127dc565b610643565b6040516101ba9190612d76565b60405180910390f35b3480156101cf57600080fd5b506101d8610725565b6040516101e59190612e28565b60405180910390f35b3480156101fa57600080fd5b5061021560048036038101906102109190612836565b6107b7565b6040516102229190612ccb565b60405180910390f35b34801561023757600080fd5b50610252600480360381019061024d919061279c565b6107fd565b005b34801561026057600080fd5b50610269610915565b604051610276919061300a565b60405180910390f35b34801561028b57600080fd5b506102a660048036038101906102a19190612890565b61091b565b005b3480156102b457600080fd5b506102cf60048036038101906102ca9190612686565b6109db565b005b3480156102dd57600080fd5b506102f860048036038101906102f39190612836565b610a3b565b6040516103059190612e28565b60405180910390f35b34801561031a57600080fd5b50610323610aeb565b005b34801561033157600080fd5b5061034c60048036038101906103479190612686565b610b9f565b005b34801561035a57600080fd5b50610363610bbf565b6040516103709190612d5b565b60405180910390f35b34801561038557600080fd5b506103a0600480360381019061039b9190612836565b610bea565b6040516103ad9190612ccb565b60405180910390f35b3480156103c257600080fd5b506103cb610c9c565b6040516103d8919061300a565b60405180910390f35b3480156103ed57600080fd5b5061040860048036038101906104039190612619565b610ca6565b604051610415919061300a565b60405180910390f35b34801561042a57600080fd5b50610433610d5e565b005b34801561044157600080fd5b5061044a610d72565b604051610457919061300a565b60405180910390f35b34801561046c57600080fd5b50610475610d7c565b6040516104829190612ccb565b60405180910390f35b34801561049757600080fd5b506104a0610da6565b6040516104ad9190612e28565b60405180910390f35b3480156104c257600080fd5b506104dd60048036038101906104d8919061275c565b610e38565b005b3480156104eb57600080fd5b5061050660048036038101906105019190612836565b610e4e565b6040516105139190612ccb565b60405180910390f35b34801561052857600080fd5b50610543600480360381019061053e9190612836565b610e81565b6040516105509190612de4565b60405180910390f35b610561610f63565b60405161056e919061300a565b60405180910390f35b34801561058357600080fd5b5061059e600480360381019061059991906126d9565b611145565b005b3480156105ac57600080fd5b506105c760048036038101906105c29190612836565b6111a7565b6040516105d49190612e28565b60405180910390f35b3480156105e957600080fd5b5061060460048036038101906105ff9190612646565b6112ba565b6040516106119190612d76565b60405180910390f35b34801561062657600080fd5b50610641600480360381019061063c9190612619565b61134e565b005b60007f80ac58cd000000000000000000000000000000000000000000000000000000007bffffffffffffffffffffffffffffffffffffffffffffffffffffffff1916827bffffffffffffffffffffffffffffffffffffffffffffffffffffffff1916148061070e57507f5b5e139f000000000000000000000000000000000000000000000000000000007bffffffffffffffffffffffffffffffffffffffffffffffffffffffff1916827bffffffffffffffffffffffffffffffffffffffffffffffffffffffff1916145b8061071e575061071d826113d2565b5b9050919050565b606060008054610734906132f4565b80601f0160208091040260200160405190810160405280929190818152602001828054610760906132f4565b80156107ad5780601f10610782576101008083540402835291602001916107ad565b820191906000526020600020905b81548152906001019060200180831161079057829003601f168201915b5050505050905090565b60006107c28261143c565b6004600083815260200190815260200160002060009054906101000a900473ffffffffffffffffffffffffffffffffffffffff169050919050565b600061080882610bea565b90508073ffffffffffffffffffffffffffffffffffffffff168373ffffffffffffffffffffffffffffffffffffffff161415610879576040517f08c379a000000000000000000000000000000000000000000000000000000000815260040161087090612fca565b60405180910390fd5b8073ffffffffffffffffffffffffffffffffffffffff16610898611487565b73ffffffffffffffffffffffffffffffffffffffff1614806108c757506108c6816108c1611487565b6112ba565b5b610906576040517f08c379a00000000000000000000000000000000000000000000000000000000081526004016108fd90612f4a565b60405180910390fd5b610910838361148f565b505050565b60095481565b7f000000000000000000000000000000000000000000000000000000000000000073ffffffffffffffffffffffffffffffffffffffff163373ffffffffffffffffffffffffffffffffffffffff16146109cd57337f00000000000000000000000000000000000000000000000000000000000000006040517f1cf993f40000000000000000000000000000000000000000000000000000000081526004016109c4929190612ce6565b60405180910390fd5b6109d78282611548565b5050565b6109ec6109e6611487565b826116e8565b610a2b576040517f08c379a0000000000000000000000000000000000000000000000000000000008152600401610a2290612fea565b60405180910390fd5b610a3683838361177d565b505050565b6060600a8281548110610a5157610a5061348d565b5b906000526020600020018054610a66906132f4565b80601f0160208091040260200160405190810160405280929190818152602001828054610a92906132f4565b8015610adf5780601f10610ab457610100808354040283529160200191610adf565b820191906000526020600020905b815481529060010190602001808311610ac257829003601f168201915b50505050509050919050565b610af36119e4565b600047905060003373ffffffffffffffffffffffffffffffffffffffff1682604051610b1e90612cb6565b60006040518083038185875af1925050503d8060008114610b5b576040519150601f19603f3d011682016040523d82523d6000602084013e610b60565b606091505b5050905080610b9b576040517fca7e25b700000000000000000000000000000000000000000000000000000000815260040160405180910390fd5b5050565b610bba83838360405180602001604052806000815250611145565b505050565b610bc76123c8565b6040518060600160405280600a8152602001601e81526020016064815250905090565b6000806002600084815260200190815260200160002060009054906101000a900473ffffffffffffffffffffffffffffffffffffffff169050600073ffffffffffffffffffffffffffffffffffffffff168173ffffffffffffffffffffffffffffffffffffffff161415610c93576040517f08c379a0000000000000000000000000000000000000000000000000000000008152600401610c8a90612faa565b60405180910390fd5b80915050919050565b6000600954905090565b60008073ffffffffffffffffffffffffffffffffffffffff168273ffffffffffffffffffffffffffffffffffffffff161415610d17576040517f08c379a0000000000000000000000000000000000000000000000000000000008152600401610d0e90612f0a565b60405180910390fd5b600360008373ffffffffffffffffffffffffffffffffffffffff1673ffffffffffffffffffffffffffffffffffffffff168152602001908152602001600020549050919050565b610d666119e4565b610d706000611a62565b565b6000600b54905090565b6000600760009054906101000a900473ffffffffffffffffffffffffffffffffffffffff16905090565b606060018054610db5906132f4565b80601f0160208091040260200160405190810160405280929190818152602001828054610de1906132f4565b8015610e2e5780601f10610e0357610100808354040283529160200191610e2e565b820191906000526020600020905b815481529060010190602001808311610e1157829003601f168201915b5050505050905090565b610e4a610e43611487565b8383611b28565b5050565b60086020528060005260406000206000915054906101000a900473ffffffffffffffffffffffffffffffffffffffff1681565b600080600090506000610e92610bbf565b905060005b6003811015610f2b57828510158015610ed15750818160038110610ebe57610ebd61348d565b5b602002015183610ece9190613122565b85105b15610ef357806002811115610ee957610ee861342f565b5b9350505050610f5e565b818160038110610f0657610f0561348d565b5b602002015183610f169190613122565b92508080610f2390613357565b915050610e97565b506040517f12806c9d00000000000000000000000000000000000000000000000000000000815260040160405180910390fd5b919050565b6000600b54341015610fa1576040517fb90f491000000000000000000000000000000000000000000000000000000000815260040160405180910390fd5b7f000000000000000000000000000000000000000000000000000000000000000073ffffffffffffffffffffffffffffffffffffffff16635d3b1d307f00000000000000000000000000000000000000000000000000000000000000007f000000000000000000000000000000000000000000000000000000000000000060037f000000000000000000000000000000000000000000000000000000000000000060016040518663ffffffff1660e01b8152600401611064959493929190612d91565b602060405180830381600087803b15801561107e57600080fd5b505af1158015611092573d6000803e3d6000fd5b505050506040513d601f19601f820116820180604052508101906110b69190612863565b9050336008600083815260200190815260200160002060006101000a81548173ffffffffffffffffffffffffffffffffffffffff021916908373ffffffffffffffffffffffffffffffffffffffff160217905550807ff873236e6cc0ecc5be1a9a35c95ee5b8d1ac4cc7bfef0cc5060391d6cc98e26b3360405161113a9190612ccb565b60405180910390a290565b611156611150611487565b836116e8565b611195576040517f08c379a000000000000000000000000000000000000000000000000000000000815260040161118c90612fea565b60405180910390fd5b6111a184848484611c95565b50505050565b60606111b28261143c565b60006006600084815260200190815260200160002080546111d2906132f4565b80601f01602080910402602001604051908101604052809291908181526020018280546111fe906132f4565b801561124b5780601f106112205761010080835404028352916020019161124b565b820191906000526020600020905b81548152906001019060200180831161122e57829003601f168201915b50505050509050600061125c611cf1565b90506000815114156112725781925050506112b5565b6000825111156112a757808260405160200161128f929190612c92565b604051602081830303815290604052925050506112b5565b6112b084611d08565b925050505b919050565b6000600560008473ffffffffffffffffffffffffffffffffffffffff1673ffffffffffffffffffffffffffffffffffffffff16815260200190815260200160002060008373ffffffffffffffffffffffffffffffffffffffff1673ffffffffffffffffffffffffffffffffffffffff16815260200190815260200160002060009054906101000a900460ff16905092915050565b6113566119e4565b600073ffffffffffffffffffffffffffffffffffffffff168173ffffffffffffffffffffffffffffffffffffffff1614156113c6576040517f08c379a00000000000000000000000000000000000000000000000000000000081526004016113bd90612e6a565b60405180910390fd5b6113cf81611a62565b50565b60007f01ffc9a7000000000000000000000000000000000000000000000000000000007bffffffffffffffffffffffffffffffffffffffffffffffffffffffff1916827bffffffffffffffffffffffffffffffffffffffffffffffffffffffff1916149050919050565b61144581611d70565b611484576040517f08c379a000000000000000000000000000000000000000000000000000000000815260040161147b90612faa565b60405180910390fd5b50565b600033905090565b816004600083815260200190815260200160002060006101000a81548173ffffffffffffffffffffffffffffffffffffffff021916908373ffffffffffffffffffffffffffffffffffffffff160217905550808273ffffffffffffffffffffffffffffffffffffffff1661150283610bea565b73ffffffffffffffffffffffffffffffffffffffff167f8c5be1e5ebec7d5bd14f71427d1e84f3dd0314c0f7b2291e5b200ac8c7c3b92560405160405180910390a45050565b60006008600084815260200190815260200160002060009054906101000a900473ffffffffffffffffffffffffffffffffffffffff16905060006009549050600060648460008151811061159f5761159e61348d565b5b60200260200101516115b191906133a0565b905060006115be82610e81565b9050600954600960008282546115d49190613122565b925050819055506115e58484611ddc565b6116a783600a8360028111156115fe576115fd61342f565b5b8154811061160f5761160e61348d565b5b906000526020600020018054611624906132f4565b80601f0160208091040260200160405190810160405280929190818152602001828054611650906132f4565b801561169d5780601f106116725761010080835404028352916020019161169d565b820191906000526020600020905b81548152906001019060200180831161168057829003601f168201915b5050505050611dfa565b7f8a269f26b688e110e9cbd887d163dab35cae678fa353a0292de532c0cac1ecdc81856040516116d8929190612dff565b60405180910390a1505050505050565b6000806116f483610bea565b90508073ffffffffffffffffffffffffffffffffffffffff168473ffffffffffffffffffffffffffffffffffffffff161480611736575061173581856112ba565b5b8061177457508373ffffffffffffffffffffffffffffffffffffffff1661175c846107b7565b73ffffffffffffffffffffffffffffffffffffffff16145b91505092915050565b8273ffffffffffffffffffffffffffffffffffffffff1661179d82610bea565b73ffffffffffffffffffffffffffffffffffffffff16146117f3576040517f08c379a00000000000000000000000000000000000000000000000000000000081526004016117ea90612e8a565b60405180910390fd5b600073ffffffffffffffffffffffffffffffffffffffff168273ffffffffffffffffffffffffffffffffffffffff161415611863576040517f08c379a000000000000000000000000000000000000000000000000000000000815260040161185a90612eca565b60405180910390fd5b61186e838383611e6e565b61187960008261148f565b6001600360008573ffffffffffffffffffffffffffffffffffffffff1673ffffffffffffffffffffffffffffffffffffffff16815260200190815260200160002060008282546118c991906131a9565b925050819055506001600360008473ffffffffffffffffffffffffffffffffffffffff1673ffffffffffffffffffffffffffffffffffffffff16815260200190815260200160002060008282546119209190613122565b92505081905550816002600083815260200190815260200160002060006101000a81548173ffffffffffffffffffffffffffffffffffffffff021916908373ffffffffffffffffffffffffffffffffffffffff160217905550808273ffffffffffffffffffffffffffffffffffffffff168473ffffffffffffffffffffffffffffffffffffffff167fddf252ad1be2c89b69c2b068fc378daa952ba7f163c4a11628f55a4df523b3ef60405160405180910390a46119df838383611e73565b505050565b6119ec611487565b73ffffffffffffffffffffffffffffffffffffffff16611a0a610d7c565b73ffffffffffffffffffffffffffffffffffffffff1614611a60576040517f08c379a0000000000000000000000000000000000000000000000000000000008152600401611a5790612f8a565b60405180910390fd5b565b6000600760009054906101000a900473ffffffffffffffffffffffffffffffffffffffff16905081600760006101000a81548173ffffffffffffffffffffffffffffffffffffffff021916908373ffffffffffffffffffffffffffffffffffffffff1602179055508173ffffffffffffffffffffffffffffffffffffffff168173ffffffffffffffffffffffffffffffffffffffff167f8be0079c531659141344cd1fd0a4f28419497f9722a3daafe3b4186f6b6457e060405160405180910390a35050565b8173ffffffffffffffffffffffffffffffffffffffff168373ffffffffffffffffffffffffffffffffffffffff161415611b97576040517f08c379a0000000000000000000000000000000000000000000000000000000008152600401611b8e90612eea565b60405180910390fd5b80600560008573ffffffffffffffffffffffffffffffffffffffff1673ffffffffffffffffffffffffffffffffffffffff16815260200190815260200160002060008473ffffffffffffffffffffffffffffffffffffffff1673ffffffffffffffffffffffffffffffffffffffff16815260200190815260200160002060006101000a81548160ff0219169083151502179055508173ffffffffffffffffffffffffffffffffffffffff168373ffffffffffffffffffffffffffffffffffffffff167f17307eab39ab6107e8899845ad3d59bd9653f200f220920489ca2b5937696c3183604051611c889190612d76565b60405180910390a3505050565b611ca084848461177d565b611cac84848484611e78565b611ceb576040517f08c379a0000000000000000000000000000000000000000000000000000000008152600401611ce290612e4a565b60405180910390fd5b50505050565b606060405180602001604052806000815250905090565b6060611d138261143c565b6000611d1d611cf1565b90506000815111611d3d5760405180602001604052806000815250611d68565b80611d478461200f565b604051602001611d58929190612c92565b6040516020818303038152906040525b915050919050565b60008073ffffffffffffffffffffffffffffffffffffffff166002600084815260200190815260200160002060009054906101000a900473ffffffffffffffffffffffffffffffffffffffff1673ffffffffffffffffffffffffffffffffffffffff1614159050919050565b611df6828260405180602001604052806000815250612170565b5050565b611e0382611d70565b611e42576040517f08c379a0000000000000000000000000000000000000000000000000000000008152600401611e3990612f2a565b60405180910390fd5b80600660008481526020019081526020016000209080519060200190611e699291906123ea565b505050565b505050565b505050565b6000611e998473ffffffffffffffffffffffffffffffffffffffff166121cb565b15612002578373ffffffffffffffffffffffffffffffffffffffff1663150b7a02611ec2611487565b8786866040518563ffffffff1660e01b8152600401611ee49493929190612d0f565b602060405180830381600087803b158015611efe57600080fd5b505af1925050508015611f2f57506040513d601f19601f82011682018060405250810190611f2c9190612809565b60015b611fb2573d8060008114611f5f576040519150601f19603f3d011682016040523d82523d6000602084013e611f64565b606091505b50600081511415611faa576040517f08c379a0000000000000000000000000000000000000000000000000000000008152600401611fa190612e4a565b60405180910390fd5b805181602001fd5b63150b7a0260e01b7bffffffffffffffffffffffffffffffffffffffffffffffffffffffff1916817bffffffffffffffffffffffffffffffffffffffffffffffffffffffff191614915050612007565b600190505b949350505050565b60606000821415612057576040518060400160405280600181526020017f3000000000000000000000000000000000000000000000000000000000000000815250905061216b565b600082905060005b6000821461208957808061207290613357565b915050600a826120829190613178565b915061205f565b60008167ffffffffffffffff8111156120a5576120a46134bc565b5b6040519080825280601f01601f1916602001820160405280156120d75781602001600182028036833780820191505090505b5090505b60008514612164576001826120f091906131a9565b9150600a856120ff91906133a0565b603061210b9190613122565b60f81b8183815181106121215761212061348d565b5b60200101907effffffffffffffffffffffffffffffffffffffffffffffffffffffffffffff1916908160001a905350600a8561215d9190613178565b94506120db565b8093505050505b919050565b61217a83836121ee565b6121876000848484611e78565b6121c6576040517f08c379a00000000000000000000000000000000000000000000000000000000081526004016121bd90612e4a565b60405180910390fd5b505050565b6000808273ffffffffffffffffffffffffffffffffffffffff163b119050919050565b600073ffffffffffffffffffffffffffffffffffffffff168273ffffffffffffffffffffffffffffffffffffffff16141561225e576040517f08c379a000000000000000000000000000000000000000000000000000000000815260040161225590612f6a565b60405180910390fd5b61226781611d70565b156122a7576040517f08c379a000000000000000000000000000000000000000000000000000000000815260040161229e90612eaa565b60405180910390fd5b6122b360008383611e6e565b6001600360008473ffffffffffffffffffffffffffffffffffffffff1673ffffffffffffffffffffffffffffffffffffffff16815260200190815260200160002060008282546123039190613122565b92505081905550816002600083815260200190815260200160002060006101000a81548173ffffffffffffffffffffffffffffffffffffffff021916908373ffffffffffffffffffffffffffffffffffffffff160217905550808273ffffffffffffffffffffffffffffffffffffffff16600073ffffffffffffffffffffffffffffffffffffffff167fddf252ad1be2c89b69c2b068fc378daa952ba7f163c4a11628f55a4df523b3ef60405160405180910390a46123c460008383611e73565b5050565b6040518060600160405280600390602082028036833780820191505090505090565b8280546123f6906132f4565b90600052602060002090601f016020900481019282612418576000855561245f565b82601f1061243157805160ff191683800117855561245f565b8280016001018555821561245f579182015b8281111561245e578251825591602001919060010190612443565b5b50905061246c9190612470565b5090565b5b80821115612489576000816000905550600101612471565b5090565b60006124a061249b8461304a565b613025565b905080838252602082019050828560208602820111156124c3576124c26134f0565b5b60005b858110156124f357816124d988826125ef565b8452602084019350602083019250506001810190506124c6565b5050509392505050565b600061251061250b84613076565b613025565b90508281526020810184848401111561252c5761252b6134f5565b5b6125378482856132b2565b509392505050565b60008135905061254e816138c0565b92915050565b600082601f830112612569576125686134eb565b5b813561257984826020860161248d565b91505092915050565b600081359050612591816138d7565b92915050565b6000813590506125a6816138ee565b92915050565b6000815190506125bb816138ee565b92915050565b600082601f8301126125d6576125d56134eb565b5b81356125e68482602086016124fd565b91505092915050565b6000813590506125fe81613905565b92915050565b60008151905061261381613905565b92915050565b60006020828403121561262f5761262e6134ff565b5b600061263d8482850161253f565b91505092915050565b6000806040838503121561265d5761265c6134ff565b5b600061266b8582860161253f565b925050602061267c8582860161253f565b9150509250929050565b60008060006060848603121561269f5761269e6134ff565b5b60006126ad8682870161253f565b93505060206126be8682870161253f565b92505060406126cf868287016125ef565b9150509250925092565b600080600080608085870312156126f3576126f26134ff565b5b60006127018782880161253f565b94505060206127128782880161253f565b9350506040612723878288016125ef565b925050606085013567ffffffffffffffff811115612744576127436134fa565b5b612750878288016125c1565b91505092959194509250565b60008060408385031215612773576127726134ff565b5b60006127818582860161253f565b925050602061279285828601612582565b9150509250929050565b600080604083850312156127b3576127b26134ff565b5b60006127c18582860161253f565b92505060206127d2858286016125ef565b9150509250929050565b6000602082840312156127f2576127f16134ff565b5b600061280084828501612597565b91505092915050565b60006020828403121561281f5761281e6134ff565b5b600061282d848285016125ac565b91505092915050565b60006020828403121561284c5761284b6134ff565b5b600061285a848285016125ef565b91505092915050565b600060208284031215612879576128786134ff565b5b600061288784828501612604565b91505092915050565b600080604083850312156128a7576128a66134ff565b5b60006128b5858286016125ef565b925050602083013567ffffffffffffffff8111156128d6576128d56134fa565b5b6128e285828601612554565b9150509250929050565b60006128f88383612c56565b60208301905092915050565b61290d816131dd565b82525050565b61291c816130b1565b61292681846130df565b9250612931826130a7565b8060005b8381101561296257815161294987826128ec565b9650612954836130d2565b925050600181019050612935565b505050505050565b612973816131ef565b82525050565b612982816131fb565b82525050565b6000612993826130bc565b61299d81856130ea565b93506129ad8185602086016132c1565b6129b681613504565b840191505092915050565b6129ca816132a0565b82525050565b60006129db826130c7565b6129e58185613106565b93506129f58185602086016132c1565b6129fe81613504565b840191505092915050565b6000612a14826130c7565b612a1e8185613117565b9350612a2e8185602086016132c1565b80840191505092915050565b6000612a47603283613106565b9150612a5282613515565b604082019050919050565b6000612a6a602683613106565b9150612a7582613564565b604082019050919050565b6000612a8d602583613106565b9150612a98826135b3565b604082019050919050565b6000612ab0601c83613106565b9150612abb82613602565b602082019050919050565b6000612ad3602483613106565b9150612ade8261362b565b604082019050919050565b6000612af6601983613106565b9150612b018261367a565b602082019050919050565b6000612b19602983613106565b9150612b24826136a3565b604082019050919050565b6000612b3c602e83613106565b9150612b47826136f2565b604082019050919050565b6000612b5f603e83613106565b9150612b6a82613741565b604082019050919050565b6000612b82602083613106565b9150612b8d82613790565b602082019050919050565b6000612ba5602083613106565b9150612bb0826137b9565b602082019050919050565b6000612bc8601883613106565b9150612bd3826137e2565b602082019050919050565b6000612beb602183613106565b9150612bf68261380b565b604082019050919050565b6000612c0e6000836130fb565b9150612c198261385a565b600082019050919050565b6000612c31602e83613106565b9150612c3c8261385d565b604082019050919050565b612c5081613244565b82525050565b612c5f81613272565b82525050565b612c6e81613272565b82525050565b612c7d8161327c565b82525050565b612c8c8161328c565b82525050565b6000612c9e8285612a09565b9150612caa8284612a09565b91508190509392505050565b6000612cc182612c01565b9150819050919050565b6000602082019050612ce06000830184612904565b92915050565b6000604082019050612cfb6000830185612904565b612d086020830184612904565b9392505050565b6000608082019050612d246000830187612904565b612d316020830186612904565b612d3e6040830185612c65565b8181036060830152612d508184612988565b905095945050505050565b6000606082019050612d706000830184612913565b92915050565b6000602082019050612d8b600083018461296a565b92915050565b600060a082019050612da66000830188612979565b612db36020830187612c83565b612dc06040830186612c47565b612dcd6060830185612c74565b612dda6080830184612c74565b9695505050505050565b6000602082019050612df960008301846129c1565b92915050565b6000604082019050612e1460008301856129c1565b612e216020830184612904565b9392505050565b60006020820190508181036000830152612e4281846129d0565b905092915050565b60006020820190508181036000830152612e6381612a3a565b9050919050565b60006020820190508181036000830152612e8381612a5d565b9050919050565b60006020820190508181036000830152612ea381612a80565b9050919050565b60006020820190508181036000830152612ec381612aa3565b9050919050565b60006020820190508181036000830152612ee381612ac6565b9050919050565b60006020820190508181036000830152612f0381612ae9565b9050919050565b60006020820190508181036000830152612f2381612b0c565b9050919050565b60006020820190508181036000830152612f4381612b2f565b9050919050565b60006020820190508181036000830152612f6381612b52565b9050919050565b60006020820190508181036000830152612f8381612b75565b9050919050565b60006020820190508181036000830152612fa381612b98565b9050919050565b60006020820190508181036000830152612fc381612bbb565b9050919050565b60006020820190508181036000830152612fe381612bde565b9050919050565b6000602082019050818103600083015261300381612c24565b9050919050565b600060208201905061301f6000830184612c65565b92915050565b600061302f613040565b905061303b8282613326565b919050565b6000604051905090565b600067ffffffffffffffff821115613065576130646134bc565b5b602082029050602081019050919050565b600067ffffffffffffffff821115613091576130906134bc565b5b61309a82613504565b9050602081019050919050565b6000819050919050565b600060039050919050565b600081519050919050565b600081519050919050565b6000602082019050919050565b600081905092915050565b600082825260208201905092915050565b600081905092915050565b600082825260208201905092915050565b600081905092915050565b600061312d82613272565b915061313883613272565b9250827fffffffffffffffffffffffffffffffffffffffffffffffffffffffffffffffff0382111561316d5761316c6133d1565b5b828201905092915050565b600061318382613272565b915061318e83613272565b92508261319e5761319d613400565b5b828204905092915050565b60006131b482613272565b91506131bf83613272565b9250828210156131d2576131d16133d1565b5b828203905092915050565b60006131e882613252565b9050919050565b60008115159050919050565b6000819050919050565b60007fffffffff0000000000000000000000000000000000000000000000000000000082169050919050565b600081905061323f826138ac565b919050565b600061ffff82169050919050565b600073ffffffffffffffffffffffffffffffffffffffff82169050919050565b6000819050919050565b600063ffffffff82169050919050565b600067ffffffffffffffff82169050919050565b60006132ab82613231565b9050919050565b82818337600083830152505050565b60005b838110156132df5780820151818401526020810190506132c4565b838111156132ee576000848401525b50505050565b6000600282049050600182168061330c57607f821691505b602082108114156133205761331f61345e565b5b50919050565b61332f82613504565b810181811067ffffffffffffffff8211171561334e5761334d6134bc565b5b80604052505050565b600061336282613272565b91507fffffffffffffffffffffffffffffffffffffffffffffffffffffffffffffffff821415613395576133946133d1565b5b600182019050919050565b60006133ab82613272565b91506133b683613272565b9250826133c6576133c5613400565b5b828206905092915050565b7f4e487b7100000000000000000000000000000000000000000000000000000000600052601160045260246000fd5b7f4e487b7100000000000000000000000000000000000000000000000000000000600052601260045260246000fd5b7f4e487b7100000000000000000000000000000000000000000000000000000000600052602160045260246000fd5b7f4e487b7100000000000000000000000000000000000000000000000000000000600052602260045260246000fd5b7f4e487b7100000000000000000000000000000000000000000000000000000000600052603260045260246000fd5b7f4e487b7100000000000000000000000000000000000000000000000000000000600052604160045260246000fd5b600080fd5b600080fd5b600080fd5b600080fd5b600080fd5b6000601f19601f8301169050919050565b7f4552433732313a207472616e7366657220746f206e6f6e20455243373231526560008201527f63656976657220696d706c656d656e7465720000000000000000000000000000602082015250565b7f4f776e61626c653a206e6577206f776e657220697320746865207a65726f206160008201527f6464726573730000000000000000000000000000000000000000000000000000602082015250565b7f4552433732313a207472616e736665722066726f6d20696e636f72726563742060008201527f6f776e6572000000000000000000000000000000000000000000000000000000602082015250565b7f4552433732313a20746f6b656e20616c7265616479206d696e74656400000000600082015250565b7f4552433732313a207472616e7366657220746f20746865207a65726f2061646460008201527f7265737300000000000000000000000000000000000000000000000000000000602082015250565b7f4552433732313a20617070726f766520746f2063616c6c657200000000000000600082015250565b7f4552433732313a2061646472657373207a65726f206973206e6f74206120766160008201527f6c6964206f776e65720000000000000000000000000000000000000000000000602082015250565b7f45524337323155524953746f726167653a2055524920736574206f66206e6f6e60008201527f6578697374656e7420746f6b656e000000000000000000000000000000000000602082015250565b7f4552433732313a20617070726f76652063616c6c6572206973206e6f7420746f60008201527f6b656e206f776e6572206e6f7220617070726f76656420666f7220616c6c0000602082015250565b7f4552433732313a206d696e7420746f20746865207a65726f2061646472657373600082015250565b7f4f776e61626c653a2063616c6c6572206973206e6f7420746865206f776e6572600082015250565b7f4552433732313a20696e76616c696420746f6b656e2049440000000000000000600082015250565b7f4552433732313a20617070726f76616c20746f2063757272656e74206f776e6560008201527f7200000000000000000000000000000000000000000000000000000000000000602082015250565b50565b7f4552433732313a2063616c6c6572206973206e6f7420746f6b656e206f776e6560008201527f72206e6f7220617070726f766564000000000000000000000000000000000000602082015250565b600381106138bd576138bc61342f565b5b50565b6138c9816131dd565b81146138d457600080fd5b50565b6138e0816131ef565b81146138eb57600080fd5b50565b6138f781613205565b811461390257600080fd5b50565b61390e81613272565b811461391957600080fd5b5056fea2646970667358221220349b8881be3e970c273f3ad0d6cd333352b2bce67941bd6b787abb34883ae8f164736f6c63430008070033",
  "linkReferences": {},
  "deployedLinkReferences": {}
}